S01900004D61737465725F636F6E74726F6C6C65722E73726563FC
S11300000C942A000C9447000C9447000C9447006D
S11300100C9447000C9447000C9447000C94470040
S11300200C9447000C9447000C9447000C94470030
S11300300C946C020C9447000C9447000C944700F9
S11300400C9447000C9447000C9447000C94470010
S11300500C94470011241FBECFE5D8E0DEBFCDBF0E
S113006010E0A0E6B0E0EEE7F5E002C005900D92E6
S1130070A03AB107D9F720E0A0EAB0E001C01D9290
S1130080A23AB207E1F70E94F5010C94BD020C9468
S113009000000C94A0020C94B902442379F141307D
S11300A009F05FC0813079F028F08230A9F0833004
S11300B0E1F008952AB381E090E001C0880F6A95C9
S11300C0EAF7822B2CC027B381E090E001C0880FAF
S11300D06A95EAF7822B2EC024B381E090E001C038
S11300E0880F6A95EAF7822B30C021B381E090E053
S11300F001C0880F6A95EAF7822B32C0813089F0FB
S113010028F08230C9F0833011F108952AB381E0D8
S113011090E001C0880F6A95EAF7809582238ABB34
S1130120089527B381E090E001C0880F6A95EAF74B
S11301308095822387BB089524B381E090E001C0B9
S1130140880F6A95EAF78095822384BB089521B3CA
S113015081E090E001C0880F6A95EAF780958223D8
S113016081BB0895442379F1413009F05FC08130A7
S113017079F028F08230A9F08330E1F008952BB3B0
S113018081E090E001C0880F6A95EAF7822B2CC0C9
S113019028B381E090E001C0880F6A95EAF7822BCA
S11301A02EC025B381E090E001C0880F6A95EAF77C
S11301B0822B30C022B381E090E001C0880F6A95A1
S11301C0EAF7822B32C0813089F028F08230C9F0FE
S11301D0833011F108952BB381E090E001C0880FC2
S11301E06A95EAF7809582238BBB089528B381E052
S11301F090E001C0880F6A95EAF78095822388BB56
S1130200089525B381E090E001C0880F6A95EAF76C
S11302108095822385BB089522B381E090E001C0DC
S1130220880F6A95EAF78095822382BB0895CF935D
S1130230C82F40E061E081E00E94B20040E062E04B
S113024081E00E94B20040E063E081E00E94B200DD
S11302508BB39C2F907F8F70892B8BBB41E063E025
S113026081E00E94B20087EE93E00197F1F700C0AD
S1130270000040E063E081E00E94B2002BB330E173
S1130280C39FC0011124922F9F70892B8BBB41E027
S113029063E081E00E94B20087EE93E00197F1F7FA
S11302A000C0000040E063E081E00E94B20087E803
S11302B093E10197F1F700C00000CF91089541E068
S11302C061E081E00E944D0041E062E081E00E9433
S11302D04D0041E063E081E00E944D0041E064E0B4
S11302E080E00E944D0041E065E080E00E944D0006
S11302F041E066E080E00E944D0041E067E080E07C
S11303000E944D002FE788E391E021508040904007
S1130310E1F700C0000083E30E94170182E30E941A
S1130320170188E20E9417018CE00E94170181E006
S11303300E94170186E00E94170182E00C941701C5
S1130340CF93C82F41E061E081E00E94B20040E019
S113035062E081E00E94B20040E063E081E00E943C
S1130360B2008C2F807F8BBB41E063E081E00E9470
S1130370B20087EE93E00197F1F700C0000040E07F
S113038063E081E00E94B200C295C07FCBBB41E034
S113039063E081E00E94B20087EE93E00197F1F7F9
S11303A000C0000040E063E081E00E94B20087E802
S11303B093E10197F1F700C00000CF9108950F93E6
S11303C01F93CF938C01C0E0F801EC0FF11D8081E5
S11303D0882321F00E94A001CF5FF6CFCF911F9117
S11303E00F91089581E00C9417010E9449000E9426
S11303F07E020E9499020E945F012FEF89E698E134
S1130400215080409040E1F700C000000E944B0062
S11304108093A100813321F40E944B000E949E022C
S11304208091A100823321F40E944B000E949E021D
S11304308091A100833321F40E944B000E949E020C
S11304408091A100843321F40E944B000E949E02FB
S11304508091A100853321F40E944B000E949E02EA
S11304608091A000813041F40E94F20180E690E086
S11304700E94DF011092A0008091A000823031F42C
S11304800E94F2018BE690E00E94DF018091A000BF
S1130490833031F40E94F20187E790E00E94DF018B
S11304A08091A000843031F40E94F20183E890E04E
S11304B00E94DF018091A000853031F40E94F20196
S11304C08FE890E00E94DF012FEF80E792E0215057
S11304D080409040E1F798CF1F920F920FB60F9291
S11304E011248F93779B04C08FB18093A0007798D9
S11304F08F910F900FBE0F901F90189541E060E010
S113050080E00E944D0041E065E081E00E944D00E2
S113051040E066E081E00E944D0041E067E081E058
S11305200E944D006E9A6C9A8FB780688FBF6F9A45
S1130530089540E060E080E00C94B2008FB9089523
S113054040E060E083E00E944D0041E061E083E030
S11305500E944D00539A549A80B5826080BD80B544
S1130560846080BD80B5806880BD599A87E689B96A
S111057008955F9BFECF8CB10895F894FFCFE1
S113057E446576696365313A4F4E00446576696326
S113058E65323A204F4E00446576696365313A4FC1
S113059E464600446576696365323A4F46460041E5
S11305AE6C6C2064657669636573204F4646000063
S9030000FC
