:100000000C942A000C943C000C943C000C943C0092
:100010000C943C000C943C000C943C000C943C0070
:100020000C943C000C943C000C943C000C943C0060
:100030000C94F4010C943C000C943C000C943C0097
:100040000C943C000C943C000C943C000C943C0040
:100050000C943C0011241FBECFE5D8E0DEBFCDBF1D
:1000600020E0A0E6B0E001C01D92A136B207E1F7A2
:100070000E9491010C9422020C940000442379F117
:10008000413009F05FC0813079F028F08230A9F06A
:100090008330E1F008952AB381E090E001C0880F39
:1000A0006A95EAF7822B2CC027B381E090E001C06B
:1000B000880F6A95EAF7822B2EC024B381E090E086
:1000C00001C0880F6A95EAF7822B30C021B381E026
:1000D00090E001C0880F6A95EAF7822B32C0813028
:1000E00089F028F08230C9F0833011F108952AB3E5
:1000F00081E090E001C0880F6A95EAF7809582233D
:100100008ABB089527B381E090E001C0880F6A950B
:10011000EAF78095822387BB089524B381E090E0BD
:1001200001C0880F6A95EAF78095822384BB089501
:1001300021B381E090E001C0880F6A95EAF78095CD
:10014000822381BB0895442379F1413009F05FC0D7
:10015000813079F028F08230A9F08330E1F0089501
:100160002BB381E090E001C0880F6A95EAF7822BFB
:100170002CC028B381E090E001C0880F6A95EAF7AF
:10018000822B2EC025B381E090E001C0880F6A95D4
:10019000EAF7822B30C022B381E090E001C0880FE3
:1001A0006A95EAF7822B32C0813089F028F08230DC
:1001B000C9F0833011F108952BB381E090E001C0C4
:1001C000880F6A95EAF7809582238BBB089528B340
:1001D00081E090E001C0880F6A95EAF7809582235C
:1001E00088BB089525B381E090E001C0880F6A952F
:1001F000EAF78095822385BB089522B381E090E0E1
:1002000001C0880F6A95EAF78095822382BB089522
:10021000CF93C82F40E061E081E00E94A30040E05E
:1002200062E081E00E94A30040E063E081E00E9480
:10023000A3008BB39C2F907F8F70892B8BBB41E0E9
:1002400063E081E00E94A3008FE99FE00197F1F74E
:1002500000C0000040E063E081E00E94A3002BB3F7
:1002600030E1C39FC0011124922F9F70892B8BBB5B
:1002700041E063E081E00E94A3008FE99FE00197E5
:10028000F1F700C0000040E063E081E00E94A300BD
:100290008FE19EE40197F1F700C00000CF9108952F
:1002A00041E061E081E00E943E0041E062E081E0E7
:1002B0000E943E0041E063E081E00E943E0041E098
:1002C00064E080E00E943E0041E065E080E00E9442
:1002D0003E0041E066E080E00E943E0041E067E0D1
:1002E00080E00E943E002FEF81EE94E0215080409C
:1002F0009040E1F700C0000083E30E94080182E320
:100300000E94080188E20E9408018CE00E94080116
:1003100081E00E94080186E00E94080182E00C94BE
:1003200008010E9450010E94060241E063E083E060
:100330000E943E0041E062E082E00E943E00809127
:100340006000813351F441E062E082E00E94A3004A
:100350001092600081E00E94200280916000823350
:1003600051F441E063E083E00E94A300109260003A
:1003700082E00E94200280916000833351F440E0CB
:1003800062E082E00E94A3001092600083E00E947D
:10039000200280916000843351F440E063E083E008
:1003A0000E94A3001092600084E00E9420028091CD
:1003B0006000853379F440E062E082E00E94A300AF
:1003C00040E063E083E00E94A3001092600085E0BB
:1003D0000E9420022FEF80E792E021508040904061
:1003E000E1F700C00000ABCF1F920F920FB60F9243
:1003F00011248F93779B04C08FB18093600077980E
:100400008F910F900FBE0F901F90189540E064E001
:1004100081E00E943E0040E065E081E00E943E00F5
:1004200041E066E081E00E943E0040E067E081E05C
:100430000E943E006E9A8FB780688FBF6F9A0895B2
:080440008FB90895F894FFCF75
:00000001FF
