:100000000C942A000C943C000C943C000C943C0092
:100010000C943C000C943C000C943C000C943C0070
:100020000C943C000C943C000C943C000C943C0060
:100030000C943C000C943C000C943C000C943C0050
:100040000C943C000C943C000C943C000C943C0040
:100050000C943C0011241FBECFE5D8E0DEBFCDBF1D
:1000600020E0A0E6B0E001C01D92A236B207E1F7A1
:100070000E9426010C948B010C9400000E946F01D9
:1000800008950E94870108954423B9F1413009F091
:100090006BC0813089F028F08230C9F0833011F1D3
:1000A00008952AB381E090E002C0880F991F6A95F5
:1000B000E2F7822B8ABB089527B381E090E002C06B
:1000C000880F991F6A95E2F7822B87BB089524B3A6
:1000D00081E090E002C0880F991F6A95E2F7822BB9
:1000E00084BB089521B381E090E002C0880F991F7E
:1000F0006A95E2F7822B81BB0895813091F028F058
:100100008230D9F0833029F108952AB381E090E05C
:1001100002C0880F991F6A95E2F7809582238ABBF7
:10012000089527B381E090E002C0880F991F6A9577
:10013000E2F78095822387BB089524B381E090E0A5
:1001400002C0880F991F6A95E2F78095822384BBCD
:10015000089521B381E090E002C0880F991F6A954D
:10016000E2F78095822381BB08954423B9F14130A1
:1001700009F06BC0813089F028F08230C9F08330FB
:1001800011F108952BB381E090E002C0880F991F10
:100190006A95E2F7822B8BBB089528B381E090E04B
:1001A00002C0880F991F6A95E2F7822B88BB0895D9
:1001B00025B381E090E002C0880F991F6A95E2F7AD
:1001C000822B85BB089522B381E090E002C0880FA6
:1001D000991F6A95E2F7822B82BB0895813091F0D6
:1001E00028F08230D9F0833029F108952BB381E0D3
:1001F00090E002C0880F991F6A95E2F780958223EC
:100200008BBB089528B381E090E002C0880F991F4E
:100210006A95E2F78095822388BB089525B381E033
:1002200090E002C0880F991F6A95E2F780958223BB
:1002300085BB089522B381E090E002C0880F991F2A
:100240006A95E2F78095822382BB08950E943E0062
:100250000E944C010E9464012FEF89E698E1215031
:1002600080409040E1F700C000000E944100809370
:100270006100813331F40E9441000E946A01809341
:10028000600080916100823381F70E9441000E94EA
:100290006A0180936000E9CF41E060E080E00E9465
:1002A000440041E065E081E00E94440040E066E0F7
:1002B00081E00E94440041E067E081E00E94440048
:1002C0006E9A6C9A699A089540E060E080E00E941E
:1002D000B50008958FB9779BFECF8FB1089540E0A8
:1002E00060E083E00E94440041E061E083E00E941E
:1002F0004400539A549A80B5826080BD80B5846072
:1003000080BD80B5806880BD83E389B908955F9B17
:0A031000FECF8CB10895F894FFCFE2
:00000001FF
